{
  "transactions": [
    {
      "hash": "0xf2b32057ead1a2476c73b114ea6ece1aae00ebb0401714697497bd6df281f7ad",
      "transactionType": "CALL",
      "contractName": null,
      "contractAddress": "0x96c6bf9200c62e5e72f280ecce01f4a4b3e011d0",
      "function": "createOrUpdateDraw(uint256,uint256,bool)",
      "arguments": [
        "80",
        "1761424800",
        "true"
      ],
      "transaction": {
        "from": "0x6d22bf74832e022c47653eabe427808da0e5565a",
        "to": "0x96c6bf9200c62e5e72f280ecce01f4a4b3e011d0",
        "gas": "0x1939d",
        "value": "0x0",
        "input": "0xfa52049e00000000000000000000000000000000000000000000000000000000000000500000000000000000000000000000000000000000000000000000000068fd35a00000000000000000000000000000000000000000000000000000000000000001",
        "nonce": "0x11",
        "chainId": "0x3e9"
      },
      "additionalContracts": [],
      "isFixedGasLimit": false
    },
    {
      "hash": "0xc69958920b8132c00540c52ff655ffb032a4259a63597750dfb67ecbd6523343",
      "transactionType": "CALL",
      "contractName": null,
      "contractAddress": "0x96c6bf9200c62e5e72f280ecce01f4a4b3e011d0",
      "function": "setCurrentDraw(uint256)",
      "arguments": [
        "80"
      ],
      "transaction": {
        "from": "0x6d22bf74832e022c47653eabe427808da0e5565a",
        "to": "0x96c6bf9200c62e5e72f280ecce01f4a4b3e011d0",
        "gas": "0x106ef",
        "value": "0x0",
        "input": "0xc35ab62b0000000000000000000000000000000000000000000000000000000000000050",
        "nonce": "0x12",
        "chainId": "0x3e9"
      },
      "additionalContracts": [],
      "isFixedGasLimit": false
    }
  ],
  "receipts": [
    {
      "status": "0x1",
      "cumulativeGasUsed": "0x113fa",
      "logs": [
        {
          "address": "0x96c6bf9200c62e5e72f280ecce01f4a4b3e011d0",
          "topics": [
            "0x9e5aa1895cac644f584979428802a3ac9d38f05cfc30e374b4f236cf36fb1009",
            "0x0000000000000000000000000000000000000000000000000000000000000050"
          ],
          "data": "0x0000000000000000000000000000000000000000000000000000000068fd35a0",
          "blockHash": "0x7562f5ce1253cd9c2c377985d80d394ffd49882f2911f0e98d12aebf8e63a4f5",
          "blockNumber": "0xbdbd005",
          "transactionHash": "0xf2b32057ead1a2476c73b114ea6ece1aae00ebb0401714697497bd6df281f7ad",
          "transactionIndex": "0x0",
          "logIndex": "0x0",
          "removed": false
        }
      ],
      "logsBloom": "0x00000000000000000000000000000000000000000000000000000000000000000000000000000000000400000020000000000000000000000000000000000000000000000000000000000000000000000000000000000000000002000000000000000000000000000000000000000000000000000000000000000000000000000000000000100000000000000000000000000000000000000000000080000000000000000000000000000000000000000000000000000000000000000000000000000000000000080000000000000000000100000000000000000020000000000000000008000000000000000000000000000000000000000000000000000000",
      "type": "0x2",
      "transactionHash": "0xf2b32057ead1a2476c73b114ea6ece1aae00ebb0401714697497bd6df281f7ad",
      "transactionIndex": "0x0",
      "blockHash": "0x7562f5ce1253cd9c2c377985d80d394ffd49882f2911f0e98d12aebf8e63a4f5",
      "blockNumber": "0xbdbd005",
      "gasUsed": "0x113fa",
      "effectiveGasPrice": "0x66720b300",
      "from": "0x6d22bf74832e022c47653eabe427808da0e5565a",
      "to": "0x96c6bf9200c62e5e72f280ecce01f4a4b3e011d0",
      "contractAddress": null
    },
    {
      "status": "0x1",
      "cumulativeGasUsed": "0x1c7c3",
      "logs": [],
      "logsBloom": "0x00000000000000000000000000000000000000000000000000000000000000000000000000000000000000000000000000000000000000000000000000000000000000000000000000000000000000000000000000000000000000000000000000000000000000000000000000000000000000000000000000000000000000000000000000000000000000000000000000000000000000000000000000000000000000000000000000000000000000000000000000000000000000000000000000000000000000000000000000000000000000000000000000000000000000000000000000000000000000000000000000000000000000000000000000000000",
      "type": "0x2",
      "transactionHash": "0xc69958920b8132c00540c52ff655ffb032a4259a63597750dfb67ecbd6523343",
      "transactionIndex": "0x1",
      "blockHash": "0x7562f5ce1253cd9c2c377985d80d394ffd49882f2911f0e98d12aebf8e63a4f5",
      "blockNumber": "0xbdbd005",
      "gasUsed": "0xb3c9",
      "effectiveGasPrice": "0x66720b300",
      "from": "0x6d22bf74832e022c47653eabe427808da0e5565a",
      "to": "0x96c6bf9200c62e5e72f280ecce01f4a4b3e011d0",
      "contractAddress": null
    }
  ],
  "libraries": [],
  "pending": [],
  "returns": {},
  "timestamp": 1760593109703,
  "chain": 1001,
  "commit": "4daca84"
}