{
  "transactions": [
    {
      "hash": "0xe529107cef6ee35d329d4cc2df8a9b4962d4e3b896ab1308717c5fc5fa7068aa",
      "transactionType": "CALL",
      "contractName": null,
      "contractAddress": "0x48652572d77e4ba015de5f359cf138cb540502c8",
      "function": "createOrUpdateDraw(uint256,uint256,bool)",
      "arguments": [
        "80",
        "1761424800",
        "true"
      ],
      "transaction": {
        "from": "0x6d22bf74832e022c47653eabe427808da0e5565a",
        "to": "0x48652572d77e4ba015de5f359cf138cb540502c8",
        "gas": "0x1939c",
        "value": "0x0",
        "input": "0xfa52049e00000000000000000000000000000000000000000000000000000000000000500000000000000000000000000000000000000000000000000000000068fd35a00000000000000000000000000000000000000000000000000000000000000001",
        "nonce": "0x9",
        "chainId": "0x3e9"
      },
      "additionalContracts": [],
      "isFixedGasLimit": false
    },
    {
      "hash": "0xc11843da718aedce8e49dc26db7889703eeb97ad9c49d36dfb0cca368df06877",
      "transactionType": "CALL",
      "contractName": null,
      "contractAddress": "0x48652572d77e4ba015de5f359cf138cb540502c8",
      "function": "setCurrentDraw(uint256)",
      "arguments": [
        "80"
      ],
      "transaction": {
        "from": "0x6d22bf74832e022c47653eabe427808da0e5565a",
        "to": "0x48652572d77e4ba015de5f359cf138cb540502c8",
        "gas": "0x106ef",
        "value": "0x0",
        "input": "0xc35ab62b0000000000000000000000000000000000000000000000000000000000000050",
        "nonce": "0xa",
        "chainId": "0x3e9"
      },
      "additionalContracts": [],
      "isFixedGasLimit": false
    }
  ],
  "receipts": [
    {
      "status": "0x1",
      "cumulativeGasUsed": "0x25699",
      "logs": [
        {
          "address": "0x48652572d77e4ba015de5f359cf138cb540502c8",
          "topics": [
            "0x9e5aa1895cac644f584979428802a3ac9d38f05cfc30e374b4f236cf36fb1009",
            "0x0000000000000000000000000000000000000000000000000000000000000050"
          ],
          "data": "0x0000000000000000000000000000000000000000000000000000000068fd35a0",
          "blockHash": "0x057542fae24e44ce41c6f1370cc84febfc57914e8bd4944fd40fee467b1998e0",
          "blockNumber": "0xbdb9847",
          "transactionHash": "0xe529107cef6ee35d329d4cc2df8a9b4962d4e3b896ab1308717c5fc5fa7068aa",
          "transactionIndex": "0x1",
          "logIndex": "0x2",
          "removed": false
        }
      ],
      "logsBloom": "0x00000000000000000000000000000000000000000000000000000000000000000000000000000000000400000020000000000000000000000000000000000000000000000000000000000000000000000000000000000000000002000000000000000000000000000000000000000000000000000000000000000000000000000000000000100000000000000000000000000000000000000000000000000000000000000000000000000000000100000000000000000000000000000000000000000000000000080000000000000200000000000000000000010020000000000000000000000000000000000000000000000000000000000000000000000000",
      "type": "0x2",
      "transactionHash": "0xe529107cef6ee35d329d4cc2df8a9b4962d4e3b896ab1308717c5fc5fa7068aa",
      "transactionIndex": "0x1",
      "blockHash": "0x057542fae24e44ce41c6f1370cc84febfc57914e8bd4944fd40fee467b1998e0",
      "blockNumber": "0xbdb9847",
      "gasUsed": "0x113f9",
      "effectiveGasPrice": "0x5d518aa80",
      "from": "0x6d22bf74832e022c47653eabe427808da0e5565a",
      "to": "0x48652572d77e4ba015de5f359cf138cb540502c8",
      "contractAddress": null
    },
    {
      "status": "0x1",
      "cumulativeGasUsed": "0x30a62",
      "logs": [],
      "logsBloom": "0x00000000000000000000000000000000000000000000000000000000000000000000000000000000000000000000000000000000000000000000000000000000000000000000000000000000000000000000000000000000000000000000000000000000000000000000000000000000000000000000000000000000000000000000000000000000000000000000000000000000000000000000000000000000000000000000000000000000000000000000000000000000000000000000000000000000000000000000000000000000000000000000000000000000000000000000000000000000000000000000000000000000000000000000000000000000",
      "type": "0x2",
      "transactionHash": "0xc11843da718aedce8e49dc26db7889703eeb97ad9c49d36dfb0cca368df06877",
      "transactionIndex": "0x2",
      "blockHash": "0x057542fae24e44ce41c6f1370cc84febfc57914e8bd4944fd40fee467b1998e0",
      "blockNumber": "0xbdb9847",
      "gasUsed": "0xb3c9",
      "effectiveGasPrice": "0x5d518aa80",
      "from": "0x6d22bf74832e022c47653eabe427808da0e5565a",
      "to": "0x48652572d77e4ba015de5f359cf138cb540502c8",
      "contractAddress": null
    }
  ],
  "libraries": [],
  "pending": [],
  "returns": {},
  "timestamp": 1760578840196,
  "chain": 1001,
  "commit": "4daca84"
}