{
  "transactions": [
    {
      "hash": "0xbf87278142c3559b25087f4b2459effcbd08e67d191d012bfb174a889e7256ce",
      "transactionType": "CALL",
      "contractName": null,
      "contractAddress": "0x0a7159b1f1a072c9bf3c3e3a93ed15d7749ed081",
      "function": "buyTicket(uint8[6],string)",
      "arguments": [
        "[5, 12, 21, 33, 40, 45]",
        "ipfs://your_ticket_metadata_for_these_numbers"
      ],
      "transaction": {
        "from": "0x6d22bf74832e022c47653eabe427808da0e5565a",
        "to": "0x0a7159b1f1a072c9bf3c3e3a93ed15d7749ed081",
        "gas": "0x4534f",
        "value": "0x2386f26fc10000",
        "input": "0xe2d5aea20000000000000000000000000000000000000000000000000000000000000005000000000000000000000000000000000000000000000000000000000000000c000000000000000000000000000000000000000000000000000000000000001500000000000000000000000000000000000000000000000000000000000000210000000000000000000000000000000000000000000000000000000000000028000000000000000000000000000000000000000000000000000000000000002d00000000000000000000000000000000000000000000000000000000000000e0000000000000000000000000000000000000000000000000000000000000002d697066733a2f2f796f75725f7469636b65745f6d657461646174615f666f725f74686573655f6e756d6265727300000000000000000000000000000000000000",
        "nonce": "0x6",
        "chainId": "0x3e9"
      },
      "additionalContracts": [],
      "isFixedGasLimit": false
    }
  ],
  "receipts": [
    {
      "status": "0x1",
      "cumulativeGasUsed": "0x321ad",
      "logs": [
        {
          "address": "0x0a7159b1f1a072c9bf3c3e3a93ed15d7749ed081",
          "topics": [
            "0xddf252ad1be2c89b69c2b068fc378daa952ba7f163c4a11628f55a4df523b3ef",
            "0x0000000000000000000000000000000000000000000000000000000000000000",
            "0x0000000000000000000000006d22bf74832e022c47653eabe427808da0e5565a",
            "0x0000000000000000000000000000000000000000000000000000000000000000"
          ],
          "data": "0x",
          "blockHash": "0x9b9b0bcfdf78ac709a11d98159472e618d251d7e206d67e6982a18df7e049e00",
          "blockNumber": "0xbda9dec",
          "transactionHash": "0xbf87278142c3559b25087f4b2459effcbd08e67d191d012bfb174a889e7256ce",
          "transactionIndex": "0x0",
          "logIndex": "0x0",
          "removed": false
        },
        {
          "address": "0x0a7159b1f1a072c9bf3c3e3a93ed15d7749ed081",
          "topics": [
            "0xf8e1a15aba9398e019f0b49df1a4fde98ee17ae345cb5f6b5e2c27f5033e8ce7"
          ],
          "data": "0x0000000000000000000000000000000000000000000000000000000000000000",
          "blockHash": "0x9b9b0bcfdf78ac709a11d98159472e618d251d7e206d67e6982a18df7e049e00",
          "blockNumber": "0xbda9dec",
          "transactionHash": "0xbf87278142c3559b25087f4b2459effcbd08e67d191d012bfb174a889e7256ce",
          "transactionIndex": "0x0",
          "logIndex": "0x1",
          "removed": false
        },
        {
          "address": "0x0a7159b1f1a072c9bf3c3e3a93ed15d7749ed081",
          "topics": [
            "0xba24aa15a08378b8ec8f03266d65806ff3c9ad3a1d1bf26f8c2f4b32d8e585be",
            "0x0000000000000000000000006d22bf74832e022c47653eabe427808da0e5565a",
            "0x0000000000000000000000000000000000000000000000000000000000000000"
          ],
          "data": "0x0000000000000000000000000000000000000000000000000000000000000005000000000000000000000000000000000000000000000000000000000000000c000000000000000000000000000000000000000000000000000000000000001500000000000000000000000000000000000000000000000000000000000000210000000000000000000000000000000000000000000000000000000000000028000000000000000000000000000000000000000000000000000000000000002d",
          "blockHash": "0x9b9b0bcfdf78ac709a11d98159472e618d251d7e206d67e6982a18df7e049e00",
          "blockNumber": "0xbda9dec",
          "transactionHash": "0xbf87278142c3559b25087f4b2459effcbd08e67d191d012bfb174a889e7256ce",
          "transactionIndex": "0x0",
          "logIndex": "0x2",
          "removed": false
        }
      ],
      "logsBloom": "0x00000000000000000000000000000200000000000000000000000000000000000000000000000000000000000800000000000000000000000000000000000020000000000000000000000008000000000000000000000000000000000000000000000000020000000000000000000800000000000000800000000010000000000000000000000000000000001000000000000000000000000000000000000000000000000000000000000000000000002000000800000000000000000000008000000002000000000000000000000000000000000000000000000000200020000000000400200000200000000000000000000000000000000000000000000000",
      "type": "0x2",
      "transactionHash": "0xbf87278142c3559b25087f4b2459effcbd08e67d191d012bfb174a889e7256ce",
      "transactionIndex": "0x0",
      "blockHash": "0x9b9b0bcfdf78ac709a11d98159472e618d251d7e206d67e6982a18df7e049e00",
      "blockNumber": "0xbda9dec",
      "gasUsed": "0x321ad",
      "effectiveGasPrice": "0x5d518aa80",
      "from": "0x6d22bf74832e022c47653eabe427808da0e5565a",
      "to": "0x0a7159b1f1a072c9bf3c3e3a93ed15d7749ed081",
      "contractAddress": null
    }
  ],
  "libraries": [],
  "pending": [],
  "returns": {},
  "timestamp": 1760514748980,
  "chain": 1001,
  "commit": "4daca84"
}