{
  "transactions": [
    {
      "hash": "0x5705599965a0bc640beb919bf5634e401616515f06bebbf7a69a4290c18bf666",
      "transactionType": "CALL",
      "contractName": null,
      "contractAddress": "0x000b33fbf9150cd1559a68ac26a207287cd708f3",
      "function": "createNewToken(uint256,string)",
      "arguments": [
        "1",
        "https://gateway.pinata.cloud/ipfs/bafkreih7ygfwgipyjfp3xu3jhh63qldgiw4tac55se5k6ao44wboqevh4i"
      ],
      "transaction": {
        "from": "0x6d22bf74832e022c47653eabe427808da0e5565a",
        "to": "0x000b33fbf9150cd1559a68ac26a207287cd708f3",
        "gas": "0x3624e",
        "value": "0x0",
        "input": "0x3100efb500000000000000000000000000000000000000000000000000000000000000010000000000000000000000000000000000000000000000000000000000000040000000000000000000000000000000000000000000000000000000000000005d68747470733a2f2f676174657761792e70696e6174612e636c6f75642f697066732f6261666b726569683779676677676970796a6670337875336a68683633716c646769773474616335357365356b36616f343477626f716576683469000000",
        "nonce": "0x3",
        "chainId": "0x3e9"
      },
      "additionalContracts": [],
      "isFixedGasLimit": false
    }
  ],
  "receipts": [
    {
      "status": "0x1",
      "cumulativeGasUsed": "0x25059",
      "logs": [
        {
          "address": "0x000b33fbf9150cd1559a68ac26a207287cd708f3",
          "topics": [
            "0xc3d58168c5ae7397731d063d5bbf3d657854427343f4c083240f7aacaa2d0f62",
            "0x0000000000000000000000006d22bf74832e022c47653eabe427808da0e5565a",
            "0x0000000000000000000000000000000000000000000000000000000000000000",
            "0x0000000000000000000000006d22bf74832e022c47653eabe427808da0e5565a"
          ],
          "data": "0x00000000000000000000000000000000000000000000000000000000000000020000000000000000000000000000000000000000000000000000000000000001",
          "blockHash": "0x304303861970f09a3992adc11389949d2194c7fb5c7ade29b4ba346c8452f224",
          "blockNumber": "0xbda5202",
          "transactionHash": "0x5705599965a0bc640beb919bf5634e401616515f06bebbf7a69a4290c18bf666",
          "transactionIndex": "0x0",
          "logIndex": "0x0",
          "removed": false
        },
        {
          "address": "0x000b33fbf9150cd1559a68ac26a207287cd708f3",
          "topics": [
            "0x7775d6ac27837184534d17b6cdcdcc82f564fa44d02ec9e6a2efa2aee69fe581",
            "0x0000000000000000000000000000000000000000000000000000000000000002",
            "0x0000000000000000000000006d22bf74832e022c47653eabe427808da0e5565a"
          ],
          "data": "0x00000000000000000000000000000000000000000000000000000000000000010000000000000000000000000000000000000000000000000000000000000040000000000000000000000000000000000000000000000000000000000000005d68747470733a2f2f676174657761792e70696e6174612e636c6f75642f697066732f6261666b726569683779676677676970796a6670337875336a68683633716c646769773474616335357365356b36616f343477626f716576683469000000",
          "blockHash": "0x304303861970f09a3992adc11389949d2194c7fb5c7ade29b4ba346c8452f224",
          "blockNumber": "0xbda5202",
          "transactionHash": "0x5705599965a0bc640beb919bf5634e401616515f06bebbf7a69a4290c18bf666",
          "transactionIndex": "0x0",
          "logIndex": "0x1",
          "removed": false
        }
      ],
      "logsBloom": "0x04000000000000000000000000000000000000000000000000000000000000000000000000000000000000000000000000000000000000000000010000002000000000000000000000000000000000000000000000000000000000000000000000000000020000000000000000000800000000000000000000000020000000000000000000000000800000001000000000000000000000000000000000004000000000000000000000000100000000000000000800000004000000000000000000000000000000000000000000000000000000000008000000000000000020000000000400001000000000000000000000000000008000000000080000000000",
      "type": "0x2",
      "transactionHash": "0x5705599965a0bc640beb919bf5634e401616515f06bebbf7a69a4290c18bf666",
      "transactionIndex": "0x0",
      "blockHash": "0x304303861970f09a3992adc11389949d2194c7fb5c7ade29b4ba346c8452f224",
      "blockNumber": "0xbda5202",
      "gasUsed": "0x25059",
      "effectiveGasPrice": "0x61e1caec0",
      "from": "0x6d22bf74832e022c47653eabe427808da0e5565a",
      "to": "0x000b33fbf9150cd1559a68ac26a207287cd708f3",
      "contractAddress": null
    }
  ],
  "libraries": [],
  "pending": [],
  "returns": {},
  "timestamp": 1760495314954,
  "chain": 1001,
  "commit": null
}