{
  "transactions": [
    {
      "hash": "0xada7c9e64f9e031a15119d2745c71a4fb1d17706e3aae2e9089abc6d33c47ee9",
      "transactionType": "CALL",
      "contractName": null,
      "contractAddress": "0x000b33fbf9150cd1559a68ac26a207287cd708f3",
      "function": "createNewToken(uint256,string)",
      "arguments": [
        "50",
        "ipfs://your_new_token_metadata_hash"
      ],
      "transaction": {
        "from": "0x6d22bf74832e022c47653eabe427808da0e5565a",
        "to": "0x000b33fbf9150cd1559a68ac26a207287cd708f3",
        "gas": "0x310cc",
        "value": "0x0",
        "input": "0x3100efb5000000000000000000000000000000000000000000000000000000000000003200000000000000000000000000000000000000000000000000000000000000400000000000000000000000000000000000000000000000000000000000000023697066733a2f2f796f75725f6e65775f746f6b656e5f6d657461646174615f686173680000000000000000000000000000000000000000000000000000000000",
        "nonce": "0x2",
        "chainId": "0x3e9"
      },
      "additionalContracts": [],
      "isFixedGasLimit": false
    }
  ],
  "receipts": [
    {
      "status": "0x1",
      "cumulativeGasUsed": "0x2382f",
      "logs": [
        {
          "address": "0x000b33fbf9150cd1559a68ac26a207287cd708f3",
          "topics": [
            "0xc3d58168c5ae7397731d063d5bbf3d657854427343f4c083240f7aacaa2d0f62",
            "0x0000000000000000000000006d22bf74832e022c47653eabe427808da0e5565a",
            "0x0000000000000000000000000000000000000000000000000000000000000000",
            "0x0000000000000000000000006d22bf74832e022c47653eabe427808da0e5565a"
          ],
          "data": "0x00000000000000000000000000000000000000000000000000000000000000010000000000000000000000000000000000000000000000000000000000000032",
          "blockHash": "0x84cdaa208416a07c5041e1905f3f8eb407d8d0f25ada76ad4c3e7a1a3360f145",
          "blockNumber": "0xbda42f2",
          "transactionHash": "0xada7c9e64f9e031a15119d2745c71a4fb1d17706e3aae2e9089abc6d33c47ee9",
          "transactionIndex": "0x0",
          "logIndex": "0x0",
          "removed": false
        },
        {
          "address": "0x000b33fbf9150cd1559a68ac26a207287cd708f3",
          "topics": [
            "0x7775d6ac27837184534d17b6cdcdcc82f564fa44d02ec9e6a2efa2aee69fe581",
            "0x0000000000000000000000000000000000000000000000000000000000000001",
            "0x0000000000000000000000006d22bf74832e022c47653eabe427808da0e5565a"
          ],
          "data": "0x000000000000000000000000000000000000000000000000000000000000003200000000000000000000000000000000000000000000000000000000000000400000000000000000000000000000000000000000000000000000000000000023697066733a2f2f796f75725f6e65775f746f6b656e5f6d657461646174615f686173680000000000000000000000000000000000000000000000000000000000",
          "blockHash": "0x84cdaa208416a07c5041e1905f3f8eb407d8d0f25ada76ad4c3e7a1a3360f145",
          "blockNumber": "0xbda42f2",
          "transactionHash": "0xada7c9e64f9e031a15119d2745c71a4fb1d17706e3aae2e9089abc6d33c47ee9",
          "transactionIndex": "0x0",
          "logIndex": "0x1",
          "removed": false
        }
      ],
      "logsBloom": "0x00000000000000000000000000000000000000000000000000000000000000000000000000000000000000000000000000000000000000000000010000042000000000000000000000000000000000000000000000040000000000000000000000000000020000000000000000000800000000000000000000000020000000000000000000000000800000001000000000000000000000000000000000004000000000000000000000000000000000000000000800000004000000000000000000000000000000000000000000000000000000000008000000000000000060000000000400001000000000000000000000000000000000000000080000000000",
      "type": "0x2",
      "transactionHash": "0xada7c9e64f9e031a15119d2745c71a4fb1d17706e3aae2e9089abc6d33c47ee9",
      "transactionIndex": "0x0",
      "blockHash": "0x84cdaa208416a07c5041e1905f3f8eb407d8d0f25ada76ad4c3e7a1a3360f145",
      "blockNumber": "0xbda42f2",
      "gasUsed": "0x2382f",
      "effectiveGasPrice": "0x5d518aa80",
      "from": "0x6d22bf74832e022c47653eabe427808da0e5565a",
      "to": "0x000b33fbf9150cd1559a68ac26a207287cd708f3",
      "contractAddress": null
    }
  ],
  "libraries": [],
  "pending": [],
  "returns": {},
  "timestamp": 1760491459366,
  "chain": 1001,
  "commit": null
}